:100000000C9431000C944E000C944E000C944E0055
:100010000C946F060C9494060C9400060C94250620
:100020000C944A060C94DB050C94B6050C949105CF
:100030000C944E000C944E000C944E000C944E0008
:100040000C944E000C944E000C944E000C944E00F8
:100050000C944E00B807C407BB07BE07C107B8071A
:10006000B80711241FBECFE5D8E0DEBFCDBF10E03A
:10007000A0E6B0E0EAE6F6E102C005900D92AA39EA
:10008000B107D9F720E0AAE9B0E001C01D92AC3B6E
:10009000B207E1F70E9420020C94330B0C9400008D
:1000A00080916000843051F00E947B08813029F4F7
:1000B00084E08093600081E0089580E008958AE9FB
:1000C00090E00E94900880919A00823001F130F413
:1000D000882309F449C0813031F055C0833031F1B3
:1000E000843079F150C080919B00813029F460E028
:1000F00080E00E94180347C081E080939B006091DC
:100100009C00662309F43FC00E94B8083CC061E02F
:1001100080E00E94180380919B008230A1F182E070
:1001200080939B0061E00E94B8082DC080919B00E5
:10013000833049F183E080939B0061E00E94B8081E
:1001400022C080919B008430F1F084E080939B007A
:1001500080919C00843021F08F5F80939C0013C0BD
:1001600081E080939C000FC060E080E00E94180353
:1001700080919B00882339F010929B0060919C0035
:1001800080E00E94B80881E008950E9450008FB777
:1001900080688FBF0E945F00FDCF81E690E00E94E3
:1001A000230281E00895853060F46115710559F0EE
:1001B000E82FF0E0E356FF4F8081FB01808381E070
:1001C000089582E0089583E008951F93CF93DF930D
:1001D0001F92CDB7DEB7853008F04AC0182F1982BC
:1001E000BE016F5F7F4F0E94090489818130F1F465
:1001F00005C04F5F5F4F6F4F7F4F03C040E050E03F
:10020000BA01483B8BE058076105710590F3BE01C8
:100210006F5F7F4F812F0E9409048981813051F5E2
:10022000E12FF0E0E356FF4F808327C0882339F0A9
:1002300081E023C04F5F5F4F6F4F7F4F03C040E0AF
:1002400050E0BA01483B8BE058076105710590F317
:10025000BE016F5F7F4F812F0E9409048981811148
:100260000BC0E12FF0E0E356FF4F108281E005C0A4
:1002700082E003C081E001C081E00F90DF91CF9167
:100280001F9108950E943B0781E00895EF92FF922D
:100290001F93CF93DF93823008F056C0653608F085
:1002A00055C0423008F054C0C82FD0E0FE01EF55D1
:1002B000FF4F8081813009F44DC0162F411116C0C7
:1002C000CE01880F991F880F991F8C0F9D1F9C01CD
:1002D00026573F4F790161E0F90181810E9418039F
:1002E00060E0F70182810E94180316C04130A1F43A
:1002F00025E02C9FC0012D9F900D11249C012657B5
:100300003F4F790160E0F90181810E94180361E0AB
:10031000F70182810E941803FE01EF55FF4F81E033
:100320008083CE01880F991F880F991FC80FD91F8E
:10033000C657DF4F4B815C8160E070E0212F8881E0
:100340000E94430781E007C082E005C083E003C04C
:1003500084E001C085E0DF91CF911F91FF90EF9085
:100360000895EF92FF920F931F93CF93823008F07E
:1003700060C0C82F082F10E07801EE0CFF1CEE0CB7
:10038000FF1CC701800F911F9C0126573F4F790129
:1003900060E0F90181810E94180360E0F701828129
:1003A0000E941803E0E01CC0EC17C9F0D801AA0FA6
:1003B000BB1FAA0FBB1FA00FB11FA657BF4F2C9189
:1003C0008E2F90E0DC01AA0FBB1FAA0FBB1F8A0F64
:1003D0009B1FDC01A657BF4F8C91281719F0EF5FC8
:1003E000E23010F3E23069F4F801EE0FFF1FEE0F78
:1003F000FF1FE00FF11FE657FF4F80810E943D086D
:1004000012C0F0E0EF55FF4F808181110CC0F80160
:10041000EE0FFF1FEE0FFF1FE00FF11FE657FF4F1C
:1004200080810E943D08F801EF55FF4F108281E066
:1004300001C082E0CF911F910F91FF90EF9008953E
:100440000E94C500FFCFAC01892B09F4E9C080915F
:10045000A300813009F4E6C090E0D7C0E92FF0E0B6
:10046000EE0FFF1FEE0FFF1FE40FF51F3181383035
:1004700008F0DAC020812130C1F138F0223009F4CF
:1004800064C0233009F491C0D1C02AB361E070E0A8
:10049000DB0102C0AA0FBB1F3A95E2F78A2F8095B5
:1004A00082238ABBAAB38281282F30E0018002C058
:1004B000220F331F0A94E2F72A2B2ABB8BB3018049
:1004C00002C0660F771F0A94E2F7609568236BBB42
:1004D0006BB38381282F30E0018002C0220F331FCD
:1004E0000A94E2F7262B2BBB8FC027B361E070E0A4
:1004F000DB0102C0AA0FBB1F3A95E2F78A2F809555
:10050000822387BBA7B38281282F30E0018002C0FD
:10051000220F331F0A94E2F72A2B27BB88B30180EE
:1005200002C0660F771F0A94E2F76095682368BBE4
:1005300068B38381282F30E0018002C0220F331F6F
:100540000A94E2F7262B28BB5FC024B361E070E079
:10055000DB0102C0AA0FBB1F3A95E2F78A2F8095F4
:10056000822384BBA4B38281282F30E0018002C0A3
:10057000220F331F0A94E2F72A2B24BB85B3018094
:1005800002C0660F771F0A94E2F76095682365BB87
:1005900065B38381282F30E0018002C0220F331F12
:1005A0000A94E2F7262B25BB2FC021B361E070E04F
:1005B000DB0102C0AA0FBB1F3A95E2F78A2F809594
:1005C000822381BBA1B38281282F30E0018002C049
:1005D000220F331F0A94E2F72A2B21BB82B301803A
:1005E00002C0660F771F0A94E2F76095682362BB2A
:1005F00062B38381282F30E0018002C0220F331FB5
:100600000A94E2F7262B22BB9F5F9A3008F426CF8C
:100610005093A5004093A40081E08093A300089527
:1006200085E0089587E0089583E0089584E00895C3
:100630008B3008F090C09091A300992309F48DC0ED
:10064000E82FF0E0CF01880F991F880F991FE091E4
:10065000A400F091A500E80FF91F8081813021F1FD
:1006600030F08230F1F1833009F458C078C0613045
:1006700069F42BB381E090E0018002C0880F991FDC
:100680000A94E2F7822B8BBB81E008952BB381E0C3
:1006900090E0018002C0880F991F0A94E2F78095CC
:1006A00082238BBB81E00895613069F428B381E037
:1006B00090E0018002C0880F991F0A94E2F7822B14
:1006C00088BB81E0089528B381E090E0018002C0FA
:1006D000880F991F0A94E2F78095822388BB81E0F6
:1006E0000895613069F425B381E090E0018002C093
:1006F000880F991F0A94E2F7822B85BB81E0089549
:1007000025B381E090E0018002C0880F991F0A9410
:10071000E2F78095822385BB81E00895613069F41A
:1007200022B381E090E0018002C0880F991F0A94F3
:10073000E2F7822B82BB81E0089522B381E090E052
:10074000018002C0880F991F0A94E2F780958223E6
:1007500082BB81E0089582E0089586E0089584E0F8
:1007600008958B3008F04FC09091A300992309F4AD
:100770004CC0E82FF0E0CF01880F991F880F991F18
:10078000E091A400F091A500E80FF91F808181306D
:1007900099F028F08230E9F0833041F138C02BB372
:1007A00081E090E0018002C0880F991F0A94E2F76F
:1007B00082278BBB81E0089528B381E090E001801F
:1007C00002C0880F991F0A94E2F7822788BB81E054
:1007D000089525B381E090E0018002C0880F991F41
:1007E0000A94E2F7822785BB81E0089522B381E075
:1007F00090E0018002C0880F991F0A94E2F78227D7
:1008000082BB81E0089582E0089586E0089584E047
:1008100008958B3008F07CC09091A300992309F4CF
:1008200079C0E82FF0E0CF01880F991F880F991F3A
:10083000E091A400F091A500E80FF91F80818130BC
:10084000F9F030F08230A1F1833009F449C064C07E
:1008500049B3518181E090E09C01052E02C0220F36
:10086000331F0A94E2F7842F90E08223932302C07F
:10087000959587955A95E2F7FB01808381E008956D
:1008800046B3518181E090E09C01052E02C0220F09
:10089000331F0A94E2F7842F90E08223932302C04F
:1008A000959587955A95E2F7FB01808381E008953D
:1008B00043B3518181E090E09C01052E02C0220FDC
:1008C000331F0A94E2F7842F90E08223932302C01F
:1008D000959587955A95E2F7FB01808381E008950D
:1008E00040B3518181E090E09C01052E02C0220FAF
:1008F000331F0A94E2F7842F90E08223932302C0EF
:10090000959587955A95E2F7FB01808381E00895DC
:1009100082E0089586E0089584E0089590E00EC096
:10092000292F30E0F901EE0FFF1F2E0F3F1FF901B5
:10093000EC56FF4F2081281719F09F5F992381F310
:10094000892F90E0FC01EE0FFF1FEE0FFF1FEA550D
:10095000FF4F4081518162817381411551056105CD
:10096000710581F0880F991F880F991FFC01EA55C6
:10097000FF4F4150510961097109408351836283DE
:100980007383089523B72E7F23BF23B72D7F23BF03
:1009900023B72B7F23BF29B72E7F29BFFC01E65544
:1009A000FF4F24E02083E091AB00F091AC0009956B
:1009B000089520E024C0822F90E0FC01EE0FFF1F7D
:1009C000E80FF91FEC56FF4F3081332319F0333015
:1009D000D0F40FC0FC01EE0FFF1FE80FF91FEC561B
:1009E000FF4F3281311105C013BE39B73C7F39BF8B
:1009F00012BEFC01E655FF4F31E030832F5F22230A
:100A0000D1F281E0089584E008950F931F93CF936E
:100A1000DF93890181114AC0C82FD0E0FE01E6555D
:100A2000FF4F8081882309F443C0823009F442C01B
:100A300082E0FE01E655FF4F8083FE01EE0FFF1FAF
:100A4000EC0FFD1FEC56FF4F8081882321F083308F
:100A500098F184E034C0CB01BA012FEF30E040E0E0
:100A600050E00E940B0BFE01EE0FFF1FEE0FFF1F69
:100A7000EA55FF4F2083318342835383262F372F3C
:100A800089B7816089BF1093AC000093AB00CE01A1
:100A9000880F991FC80FD91FCC56DF4F898183BF9C
:100AA000232B61F0619562BF81E009C085E007C03A
:100AB00082E005C086E003C081E001C081E0DF91F3
:100AC000CF911F910F910895811123C090E0FC01F7
:100AD000E655FF4F20812223F1F02230F1F4FC0192
:100AE000EE0FFF1FE80FF91FEC56FF4F2081222366
:100AF00019F02330A0F406C023B7287F23BF29B7FD
:100B00002C7F29BFFC01E655FF4F23E0208381E0C5
:100B1000089585E0089582E0089587E0089584E0CF
:100B200008951F920F920FB60F9211242F933F93A7
:100B30004F935F936F937F938F939F93AF93BF93E5
:100B4000EF93FF9380E00E948E04FF91EF91BF919D
:100B5000AF919F918F917F916F915F914F913F9155
:100B60002F910F900FBE0F901F9018951F920F920C
:100B70000FB60F9211242F933F934F935F936F9370
:100B80007F938F939F93AF93BF93EF93FF9380E0F7
:100B90000E948E04FF91EF91BF91AF919F918F9131
:100BA0007F916F915F914F913F912F910F900FBE69
:100BB0000F901F9018951F920F920FB60F9211244D
:100BC0002F933F934F935F936F937F938F939F9355
:100BD000AF93BF93EF93FF9381E00E948E04FF9148
:100BE000EF91BF91AF919F918F917F916F915F91A5
:100BF0004F913F912F910F900FBE0F901F9018951E
:100C00001F920F920FB60F9211242F933F934F9381
:100C10005F936F937F938F939F93AF93BF93EF9364
:100C2000FF9381E00E948E04FF91EF91BF91AF91FD
:100C30009F918F917F916F915F914F913F912F91F4
:100C40000F900FBE0F901F9018951F920F920FB626
:100C50000F9211242F933F934F935F936F937F9342
:100C60008F939F93AF93BF93EF93FF9381E00E9485
:100C70008E04FF91EF91BF91AF919F918F917F91E2
:100C80006F915F914F913F912F910F900FBE0F90F9
:100C90001F9018951F920F920FB60F9211242F9349
:100CA0003F934F935F936F937F938F939F93AF93F4
:100CB000BF93EF93FF9381E00E948E04FF91EF9129
:100CC000BF91AF919F918F917F916F915F914F9164
:100CD0003F912F910F900FBE0F901F9018951F926C
:100CE0000F920FB60F9211242F933F934F935F9360
:100CF0006F937F938F939F93AF93BF93EF93FF93E4
:100D000082E00E948E04FF91EF91BF91AF919F917D
:100D10008F917F916F915F914F913F912F910F90A4
:100D20000FBE0F901F9018951F920F920FB60F9243
:100D300011242F933F934F935F936F937F938F93E0
:100D40009F93AF93BF93EF93FF9382E00E948E0433
:100D5000FF91EF91BF91AF919F918F917F916F9193
:100D60005F914F913F912F910F900FBE0F901F9069
:100D700018950F931F93E091AD00F0E0EE0FFF1F69
:100D8000E956FF4F80810E94B1038091AD0090E051
:100D90009C01220F331FF901EE0FFF1FEE0FFF1F03
:100DA000EE0FFF1FE21BF30BE255FF4F25852230AC
:100DB00009F05EC0880F991FFC01EE0FFF1FEE0FB8
:100DC000FF1FEE0FFF1FE81BF90BE255FF4F418598
:100DD000528563857485FC01E956FF4F29EB36E0A7
:100DE00081810E9405058091AD0090E09C01220F59
:100DF000331FF901EE0FFF1FEE0FFF1FEE0FFF1F56
:100E0000E21BF30BE255FF4F0185128523853485E4
:100E100045815681678170850417150726073707B6
:100E2000B1F4880F991FFC01EE0FFF1FEE0FFF1F9B
:100E3000EE0FFF1FE81BF90BE255FF4F81819281F6
:100E4000A381B48181879287A387B48711C0880F5B
:100E5000991FFC01EE0FFF1FEE0FFF1FEE0FFF1F8C
:100E6000E81BF90BE255FF4F418752876387748770
:100E70001F910F9108950E94D90481E690E00E948D
:100E8000230281E008954F925F926F927F928F923A
:100E90009F92AF92BF92EF92FF920F931F93CF93C7
:100EA000DF9300D000D000D0CDB7DEB78111C9C02C
:100EB000253608F0C8C0222309F4C7C02983E82ECC
:100EC000243661F4E82FF0E0EE0FFF1FE956FF4FE4
:100ED00061E080810E94180381E0BAC0CB01BA01B1
:100EE0000E94100A9B01AC0160E070E080E89FE383
:100EF0000E946F094B015C012981622F70E080E044
:100F000090E00E94120AA50194010E949E0A20E02E
:100F100030E048EC52E40E946F092B013C019B0138
:100F2000AC01C501B4010E94020969837A838B83F5
:100F30009C830E2D10E0F801EE0FFF1FE956FF4FC6
:100F4000F1808F2D90E0FC01EE0FFF1F8E0F9F1F91
:100F5000FC01EC56FF4FE1818E2F90E0FC013197B0
:100F6000E730F10508F073C0E65DFF4F0C942D0BE0
:100F700061E070E00BC060E470E008C060E071E028
:100F800005C060E074E002C068E070E080E090E0DE
:100F90000E94100A20E034E244E759E40E946F09FD
:100FA0004B015C01E092AD009B01AC01C301B201B9
:100FB0000E946F09000F111FF801EE0FFF1FEE0FC7
:100FC000FF1FEE0FFF1FE01BF10BE255FF4FFE83EB
:100FD000ED830E94E109ED81FE8161837283838349
:100FE0009483A501940169817A818B819C810E94FF
:100FF0006F090E94E109ED81FE8165837683878315
:101000009087E082F801E956FF4F80810E94B1038A
:10101000ED81FE81418152816381748129EB36E04B
:101020008F2D0E940505ED81FE8185819681A78126
:10103000B08581879287A387B48782E0858781E026
:1010400007C083E005C084E003C081E001C080E008
:1010500026960FB6F894DEBF0FBECDBFDF91CF91BD
:101060001F910F91FF90EF90BF90AF909F908F9046
:101070007F906F905F904F9008950F931F93CF9341
:10108000DF93811130C090E09C01220F331FF901E2
:10109000EE0FFF1FEE0FFF1FEE0FFF1FE21BF30B04
:1010A000E255FF4F2585223001F5EC01CC0FDD1F05
:1010B0008E0109561F4F60E0F80180810E941803DD
:1010C000FE01EE0FFF1FEE0FFF1FEE0FFF1FEC1BC9
:1010D000FD0BE255FF4F83E08587F80181810E9477
:1010E000640581E003C083E001C085E0DF91CF911A
:1010F0001F910F91089580918900843081F00E94A2
:10110000CD00813049F40E944201813039F484E0FD
:101110008093890081E0089580E0089580E008953B
:10112000EF92FF921F93CF93DF931F92CDB7DEB75D
:101130007C01198211E010C0812F0E94E500BE01E0
:101140006F5F7F4F812F0E94D3008981813019F416
:10115000F701108305C01F5F153070F3F70110828F
:1011600081E00F90DF91CF911F91FF90EF90089554
:10117000CF93DF93811108C081E00E94B10180E02C
:101180000E94B10181E03BC0623059F018F4613037
:1011900089F004C0633041F0643049F040E0C0E0C1
:1011A0000BC040E0CCE308C040E0CAE505C041E028
:1011B000CEE102C040E0CEE1823021F0833031F058
:1011C000D42F07C0D1E040E0CEE103C0D0E041E041
:1011D000CEE16C2F81E00E944601813069F44D2FF1
:1011E0006C2F80E00E944601813041F461E080E094
:1011F0000E94180381E003C080E001C080E0DF911D
:10120000CF9108955058BB27AA270E941A090C9421
:10121000640A0E94560A38F00E945D0A20F039F4F0
:101220009F3F19F426F40C94530A0EF4E095E7FB63
:101230000C944D0AE92F0E94750A58F3BA176207F9
:1012400073078407950720F079F4A6F50C94970AA4
:101250000EF4E0950B2EBA2FA02D0B01B9019001D1
:101260000C01CA01A0011124FF27591B99F0593F15
:1012700050F4503E68F11A16F040A22F232F342F5D
:101280004427585FF3CF469537952795A795F040AB
:101290005395C9F77EF41F16BA0B620B730B840BC0
:1012A000BAF09150A1F0FF0FBB1F661F771F881F78
:1012B000C2F70EC0BA0F621F731F841F48F48795D0
:1012C00077956795B795F7959E3F08F0B0CF9395C2
:1012D000880F08F09927EE0F9795879508950E943B
:1012E00083090C94640A0E945D0A58F00E94560A11
:1012F00040F029F45F3F29F00C944D0A51110C94F1
:10130000980A0C94530A0E94750A68F39923B1F362
:10131000552391F3951B550BBB27AA27621773071B
:10132000840738F09F5F5F4F220F331F441FAA1FAF
:10133000A9F335D00E2E3AF0E0E832D0915050406B
:10134000E695001CCAF72BD0FE2F29D0660F771F19
:10135000881FBB1F261737074807AB07B0E809F0FF
:10136000BB0B802DBF01FF2793585F4F3AF09E3F84
:10137000510578F00C944D0A0C94980A5F3FE4F301
:10138000983ED4F3869577956795B795F7959F5FC7
:10139000C9F7880F911D9695879597F90895E1E013
:1013A000660F771F881FBB1F621773078407BA0772
:1013B00020F0621B730B840BBA0BEE1F88F7E095CD
:1013C00008950E947D0A88F09F5798F0B92F9927B9
:1013D000B751B0F0E1F0660F771F881F991F1AF020
:1013E000BA95C9F714C0B13091F00E94970AB1E0E4
:1013F00008950C94970A672F782F8827B85F39F0E3
:10140000B93FCCF3869577956795B395D9F73EF4B8
:1014100090958095709561957F4F8F4F9F4F089560
:10142000E89409C097FB3EF490958095709561957E
:101430007F4F8F4F9F4F9923A9F0F92F96E9BB2734
:101440009395F695879577956795B795F111F8CFB0
:10145000FAF4BB0F11F460FF1BC06F5F7F4F8F4F1B
:101460009F4F16C0882311F096E911C0772321F011
:101470009EE8872F762F05C0662371F096E8862FA9
:1014800070E060E02AF09A95660F771F881FDAF700
:10149000880F9695879597F9089597F99F6780E843
:1014A00070E060E008959FEF80EC089500240A94B6
:1014B0001616170618060906089500240A9412162F
:1014C0001306140605060895092E0394000C11F462
:1014D000882352F0BB0F40F4BF2B11F460FF04C00F
:1014E0006F5F7F4F8F4F9F4F089557FD9058440F68
:1014F000551F59F05F3F71F04795880F97FB991F73
:1015000061F09F3F79F0879508951216130614062F
:10151000551FF2CF4695F1DF08C0161617061806BC
:10152000991FF1CF86957105610508940895E89497
:10153000BB2766277727CB0197F908950E94B10A48
:101540000C94640A0E94560A38F00E945D0A20F04A
:10155000952311F00C944D0A0C94530A11240C9409
:10156000980A0E94750A70F3959FC1F3950F50E099
:10157000551F629FF001729FBB27F00DB11D639F45
:10158000AA27F00DB11DAA1F649F6627B00DA11DEB
:10159000661F829F2227B00DA11D621F739FB00D91
:1015A000A11D621F839FA00D611D221F749F332701
:1015B000A00D611D231F849F600D211D822F762F9A
:1015C0006A2F11249F5750409AF0F1F088234AF077
:1015D000EE0FFF1FBB1F661F771F881F91505040E3
:1015E000A9F79E3F510580F00C944D0A0C94980A7F
:1015F0005F3FE4F3983ED4F3869577956795B7956A
:10160000F795E7959F5FC1F7FE2B880F911D969583
:10161000879597F90895A1E21A2EAA1BBB1BFD011D
:101620000DC0AA1FBB1FEE1FFF1FA217B307E407C1
:10163000F50720F0A21BB30BE40BF50B661F771F19
:10164000881F991F1A9469F76095709580959095F9
:101650009B01AC01BD01CF010895EE0FFF1F059066
:0A166000F491E02D0994F894FFCFF7
:10166A000503050100030000000301000003020056
:10167A000003030000010701000106010001050142
:10168A0000010401000306010005000506640000CC
:0A169A0007086400000200090000C8
:00000001FF
