:100000000C9431000C944E000C944E000C944E0055
:100010000C94E0060C9405070C9471060C9496065B
:100020000C94BB060C944C060C9427060C94020608
:100030000C944E000C944E000C944E000C944E0008
:100040000C944E000C944E000C944E000C944E00F8
:100050000C944E005C0868085F08620865085C083C
:100060005C0811241FBECFE5D8E0DEBFCDBF10E095
:10007000A0E6B0E0E0E3F8E102C005900D92A43AFA
:10008000B107D9F720E0A4EAB0E001C01D92A73C77
:10009000B207E1F70E9489020C94160C0C94000040
:1000A00080916100843051F00E944A09813029F426
:1000B00084E08093610081E0089580E0089580915C
:1000C0006100843009F07AC084EA90E00E945F0900
:1000D000813009F075C08091A4008F3F19F484E04D
:1000E0008093A4008091A400823089F128F48823B1
:1000F00049F08130D9F066C08330C9F1843009F409
:100100004DC060C080916000882309F45DC01092EA
:1001100060006091A500662309F458C081E00E9448
:100120009A09813009F454C080E0089580916000FC
:10013000813009F44FC081E08093600061E082E08B
:100140000E949A09813009F447C080E008958091A7
:100150006000823009F442C082E08093600061E078
:1001600083E00E949A098130D9F180E0089580915E
:1001700060008330B9F183E08093600080E00E94EA
:100180001A048091A500843029F08F5F8093A50028
:1001900081E0089581E08093A5000895809160003A
:1001A000843011F184E0809360006091A50080E0CC
:1001B0000E949A098130D1F080E0089585E0089589
:1001C00080E0089581E0089581E0089581E0089538
:1001D00081E0089581E0089581E0089581E0089527
:1001E00081E0089581E0089581E0089581E0089517
:1001F0000E945000813039F48FB780688FBF0E9411
:100200005F008130E1F380E00895809162008530E5
:1002100071F088E690E00E948C02813011F0873006
:1002200029F485E08093620081E0089580E00895DC
:10023000853060F46115710559F0E82FF0E0EA555A
:10024000FF4F8081FB01808381E0089582E0089563
:1002500083E008950F931F93CF93DF931F92CDB741
:10026000DEB7853008F058C01982082F10E0F80179
:10027000ED59FF4FBE016F5F7F4F80810E94720476
:10028000813009F04BC08981813009F504C00196A5
:10029000A11DB11D03C080E090E0DC01883B2BE094
:1002A0009207A105B10598F3BE016F5F7F4FF8017A
:1002B000ED59FF4F80810E947204813089F5898158
:1002C000813081F5F801EA55FF4F808330C08823E3
:1002D00031F081E02CC00196A11DB11D03C080E06A
:1002E00090E0DC01883B2BE09207A105B10598F373
:1002F000BE016F5F7F4FF801ED59FF4F80810E9473
:100300007204813089F48981811110C0F801EA55A5
:10031000FF4F108281E00BC082E009C080E007C07F
:1003200080E005C081E003C080E001C081E00F9063
:10033000DF91CF911F910F910895809167008630D2
:1003400049F00E94B207813039F486E0809367005B
:1003500081E0089586E0089580E00895FF920F936C
:100360001F93CF93DF9390916700963009F053C0AD
:10037000823008F052C0653608F051C0423008F0B3
:1003800050C0C82FD0E0FE01E655FF4F808181307C
:1003900009F449C0F62E411113C085E08C9F8001FD
:1003A0008D9F100D11240B561F4F61E0F8018181C4
:1003B0000E94810360E0F80182810E94810314C0E1
:1003C000413091F485E08C9F80018D9F100D1124A8
:1003D0000B561F4F60E0F80181810E94810361E0AC
:1003E000F80182810E948103FE01E655FF4F81E002
:1003F000808385E08C9FF0018D9FF00D1124EB56DA
:10040000FF4F4381548160E070E02F2D80810E9476
:10041000CE0781E009C087E007C082E005C083E025
:1004200003C084E001C085E0DF91CF911F910F915F
:10043000FF900895EF92FF920F931F93CF93823016
:1004400008F060C0C82F082F10E07801EE0CFF1CE8
:10045000EE0CFF1CC701800F911F9C012B563F4FD4
:10046000790160E0F90181810E94810360E0F70178
:1004700082810E948103E0E01CC0EC17C9F0D80122
:10048000AA0FBB1FAA0FBB1FA00FB11FAB56BF4FB8
:100490002C918E2F90E0DC01AA0FBB1FAA0FBB1F6F
:1004A0008A0F9B1FDC01AB56BF4F8C91281719F0A8
:1004B000EF5FE23010F3E23069F4F801EE0FFF1F56
:1004C000EE0FFF1FE00FF11FEB56FF4F80810E94E0
:1004D000020912C0F0E0E655FF4F808181110CC087
:1004E000F801EE0FFF1FEE0FFF1FE00FF11FEB569D
:1004F000FF4F80810E940209F801E655FF4F1082EC
:1005000081E001C082E0CF911F910F91FF90EF90A9
:1005100008950E94F800FFCFAC01892B09F4E9C0CF
:100520008091AC00813009F4E6C090E0D7C0E92F9B
:10053000F0E0EE0FFF1FEE0FFF1FE40FF51F3181FC
:10054000383008F0DAC020812130C1F138F0223093
:1005500009F464C0233009F491C0D1C02AB361E02A
:1005600070E0DB0102C0AA0FBB1F3A95E2F78A2FA9
:10057000809582238ABBAAB38281282F30E0018034
:1005800002C0220F331F0A94E2F72A2B2ABB8BB337
:10059000018002C0660F771F0A94E2F76095682316
:1005A0006BBB6BB38381282F30E0018002C0220F28
:1005B000331F0A94E2F7262B2BBB8FC027B361E0D1
:1005C00070E0DB0102C0AA0FBB1F3A95E2F78A2F49
:1005D0008095822387BBA7B38281282F30E00180DA
:1005E00002C0220F331F0A94E2F72A2B27BB88B3DD
:1005F000018002C0660F771F0A94E2F760956823B6
:1006000068BB68B38381282F30E0018002C0220FCD
:10061000331F0A94E2F7262B28BB5FC024B361E0A6
:1006200070E0DB0102C0AA0FBB1F3A95E2F78A2FE8
:100630008095822384BBA4B38281282F30E001807F
:1006400002C0220F331F0A94E2F72A2B24BB85B382
:10065000018002C0660F771F0A94E2F76095682355
:1006600065BB65B38381282F30E0018002C0220F73
:10067000331F0A94E2F7262B25BB2FC021B361E07C
:1006800070E0DB0102C0AA0FBB1F3A95E2F78A2F88
:100690008095822381BBA1B38281282F30E0018025
:1006A00002C0220F331F0A94E2F72A2B21BB82B328
:1006B000018002C0660F771F0A94E2F760956823F5
:1006C00062BB62B38381282F30E0018002C0220F19
:1006D000331F0A94E2F7262B22BB9F5F9A3008F45F
:1006E00026CF5093AE004093AD0081E08093AC00E4
:1006F000089585E0089587E0089583E0089584E0F3
:1007000008958B3008F090C09091AC00992309F4C3
:100710008DC0E82FF0E0CF01880F991F880F991F37
:10072000E091AD00F091AE00E80FF91F80818130BB
:1007300021F130F08230F1F1833009F458C078C0F3
:10074000613069F42BB381E090E0018002C0880F32
:10075000991F0A94E2F7822B8BBB81E008952BB39B
:1007600081E090E0018002C0880F991F0A94E2F7AF
:10077000809582238BBB81E00895613069F428B3B2
:1007800081E090E0018002C0880F991F0A94E2F78F
:10079000822B88BB81E0089528B381E090E001803E
:1007A00002C0880F991F0A94E2F78095822388BBC4
:1007B00081E00895613069F425B381E090E0018023
:1007C00002C0880F991F0A94E2F7822B85BB81E053
:1007D000089525B381E090E0018002C0880F991F41
:1007E0000A94E2F78095822385BB81E00895613009
:1007F00069F422B381E090E0018002C0880F991F64
:100800000A94E2F7822B82BB81E0089522B381E053
:1008100090E0018002C0880F991F0A94E2F780954A
:10082000822382BB81E0089582E0089586E00895E6
:1008300084E008958B3008F04FC09091AC0099236C
:1008400009F44CC0E82FF0E0CF01880F991F880F02
:10085000991FE091AD00F091AE00E80FF91F808183
:10086000813099F028F08230E9F0833041F138C0CE
:100870002BB381E090E0018002C0880F991F0A9499
:10088000E2F782278BBB81E0089528B381E090E0F6
:10089000018002C0880F991F0A94E2F7822788BB63
:1008A00081E0089525B381E090E0018002C0880FC7
:1008B000991F0A94E2F7822785BB81E0089522B34D
:1008C00081E090E0018002C0880F991F0A94E2F74E
:1008D000822782BB81E0089582E0089586E0089532
:1008E00084E008958B3008F07CC09091AC0099238F
:1008F00009F479C0E82FF0E0CF01880F991F880F25
:10090000991FE091AD00F091AE00E80FF91F8081D2
:100910008130F9F030F08230A1F1833009F449C020
:1009200064C049B3518181E090E09C01052E02C072
:10093000220F331F0A94E2F7842F90E0822393233F
:1009400002C0959587955A95E2F7FB01808381E077
:10095000089546B3518181E090E09C01052E02C0CC
:10096000220F331F0A94E2F7842F90E0822393230F
:1009700002C0959587955A95E2F7FB01808381E047
:10098000089543B3518181E090E09C01052E02C09F
:10099000220F331F0A94E2F7842F90E082239323DF
:1009A00002C0959587955A95E2F7FB01808381E017
:1009B000089540B3518181E090E09C01052E02C072
:1009C000220F331F0A94E2F7842F90E082239323AF
:1009D00002C0959587955A95E2F7FB01808381E0E7
:1009E000089582E0089586E0089584E0089590E0F7
:1009F0000EC0292F30E0F901EE0FFF1F2E0F3F1F11
:100A0000F901E156FF4F2081281719F09F5F9923C4
:100A100081F3892F90E0FC01EE0FFF1FEE0FFF1F07
:100A2000E055FF4F4081518162817381411551052D
:100A30006105710581F0880F991F880F991FFC01CE
:100A4000E055FF4F415051096109710940835183BD
:100A500062837383089523B72E7F23BF23B72D7F2F
:100A600023BF23B72B7F23BF29B72E7F29BFFC01CC
:100A7000EC54FF4F24E02083E091B500F091B600E4
:100A8000099508958091AF00813061F120E024C084
:100A9000822F90E0FC01EE0FFF1FE80FF91FE156D7
:100AA000FF4F3081332319F03330F0F40FC0FC01D5
:100AB000EE0FFF1FE80FF91FE156FF4F3281311192
:100AC00005C013BE39B73C7F39BF12BEFC01EC54E0
:100AD000FF4F31E030832F5F2223D1F281E08093FA
:100AE000AF00089583E0089585E008950F931F9364
:100AF000CF93DF93890181114AC0C82FD0E0FE0156
:100B0000EC54FF4F8081882309F443C0823009F4FC
:100B100042C082E0FE01EC54FF4F8083FE01EE0FE5
:100B2000FF1FEC0FFD1FE156FF4F8081882321F04E
:100B3000833098F185E034C0CB01BA012FEF30E06B
:100B400040E050E00E94EE0BFE01EE0FFF1FEE0FA3
:100B5000FF1FE055FF4F2083318342835383262FAD
:100B6000372F89B7816089BF1093B6000093B50015
:100B7000CE01880F991FC80FD91FC156DF4F898139
:100B800083BF232B61F0619562BF81E009C086E0DD
:100B900007C082E005C087E003C081E001C081E0BA
:100BA000DF91CF911F910F910895811123C090E0A3
:100BB000FC01EC54FF4F20812223F1F02230F1F4AC
:100BC000FC01EE0FFF1FE80FF91FE156FF4F2081D8
:100BD000222319F02330A0F406C023B7287F23BFB7
:100BE00029B72C7F29BFFC01EC54FF4F23E0208361
:100BF00081E0089586E0089582E0089588E00895F0
:100C000085E008951F920F920FB60F9211242F9333
:100C10003F934F935F936F937F938F939F93AF9384
:100C2000BF93EF93FF9380E00E94F704FF91EF9151
:100C3000BF91AF919F918F917F916F915F914F91F4
:100C40003F912F910F900FBE0F901F9018951F92FC
:100C50000F920FB60F9211242F933F934F935F93F0
:100C60006F937F938F939F93AF93BF93EF93FF9374
:100C700080E00E94F704FF91EF91BF91AF919F91A7
:100C80008F917F916F915F914F913F912F910F9035
:100C90000FBE0F901F9018951F920F920FB60F92D4
:100CA00011242F933F934F935F936F937F938F9371
:100CB0009F93AF93BF93EF93FF9381E00E94F7045C
:100CC000FF91EF91BF91AF919F918F917F916F9124
:100CD0005F914F913F912F910F900FBE0F901F90FA
:100CE00018951F920F920FB60F9211242F933F93D6
:100CF0004F935F936F937F938F939F93AF93BF9324
:100D0000EF93FF9381E00E94F704FF91EF91BF9171
:100D1000AF919F918F917F916F915F914F913F9193
:100D20002F910F900FBE0F901F9018951F920F924A
:100D30000FB60F9211242F933F934F935F936F93AE
:100D40007F938F939F93AF93BF93EF93FF9381E034
:100D50000E94F704FF91EF91BF91AF919F918F9106
:100D60007F916F915F914F913F912F910F900FBEA7
:100D70000F901F9018951F920F920FB60F9211248B
:100D80002F933F934F935F936F937F938F939F9393
:100D9000AF93BF93EF93FF9381E00E94F704FF911D
:100DA000EF91BF91AF919F918F917F916F915F91E3
:100DB0004F913F912F910F900FBE0F901F9018955C
:100DC0001F920F920FB60F9211242F933F934F93C0
:100DD0005F936F937F938F939F93AF93BF93EF93A3
:100DE000FF9382E00E94F704FF91EF91BF91AF91D2
:100DF0009F918F917F916F915F914F913F912F9133
:100E00000F900FBE0F901F9018951F920F920FB664
:100E10000F9211242F933F934F935F936F937F9380
:100E20008F939F93AF93BF93EF93FF9382E00E94C2
:100E3000F704FF91EF91BF91AF919F918F917F91B7
:100E40006F915F914F913F912F910F900FBE0F9037
:100E50001F9018950F931F93E091B800F0E0EE0FEC
:100E6000FF1FEE55FF4F80810E941A04813009F068
:100E700076C08091B80090E09C01220F331FF901E9
:100E8000EE0FFF1FEE0FFF1FEE0FFF1FE21BF30B16
:100E9000E754FF4F2585223009F061C0880F991F64
:100EA000FC01EE0FFF1FEE0FFF1FEE0FFF1FE81BF1
:100EB000F90BE754FF4F4185528563857485FC012A
:100EC000EE55FF4F2AE237E081810E94760581309E
:100ED00009F045C08091B80090E09C01220F331FBB
:100EE000F901EE0FFF1FEE0FFF1FEE0FFF1FE21BBA
:100EF000F30BE754FF4F0185128523853485458127
:100F00005681678170850417150726073707B1F4E6
:100F1000880F991FFC01EE0FFF1FEE0FFF1FEE0F52
:100F2000FF1FE81BF90BE754FF4F81819281A381DA
:100F3000B48181879287A387B48711C0880F991FD6
:100F4000FC01EE0FFF1FEE0FFF1FEE0FFF1FE81B50
:100F5000F90BE754FF4F41875287638774871F91CE
:100F60000F9108958091B700813091F00E94420561
:100F7000813011F0833071F488E690E00E948C0299
:100F8000813011F0873041F481E08093B7000895FB
:100F900080E0089580E0089580E008954F925F9288
:100FA0006F927F928F929F92AF92BF92CF92DF9279
:100FB000EF92FF920F931F93CF93DF9300D000D057
:100FC00000D0CDB7DEB79091B700913009F0F2C0F4
:100FD0008111F2C0253608F0F1C0E82FF0E0FE8361
:100FE000ED83DF01AA0FBB1FFD01EE0FFF1FEE0F08
:100FF000FF1FEE0FFF1FEA1BFB0BE754FF4F95850A
:10100000923009F4DDC0222309F4DCC0122FC82E6F
:10101000243661F4FD01EE55FF4F61E080810E94AE
:101020008103813009F4D0C080E0D5C0CB01BA0182
:101030000E94F30A9B01AC0160E070E080E89FE34E
:101040000E94520A4B015C01612F70E080E090E049
:101050000E94F50AA50194010E94810B20E030E076
:1010600048EC52E40E94520A2B013C019B01AC0166
:10107000C501B4010E94E5094B015C01ED81FE81CF
:10108000EE0FFF1FEE55FF4FD1808D2D90E0FC013C
:10109000EE0FFF1F8E0F9F1FFC01E156FF4FE181F6
:1010A0008E2F90E0FC013197E730F10508F08EC0FB
:1010B000E65DFF4F0C94100C61E070E00BC060E443
:1010C00070E008C060E071E005C060E074E002C05C
:1010D00068E070E080E090E00E94F30A20E034E2F3
:1010E00044E759E40E94520A69837A838B839C8384
:1010F000C092B8009B01AC01C301B2010E94520A28
:10110000ED80FE80EE0CFF1C8701000F111F000F09
:10111000111F000F111F0E191F0907541F4F0E94A6
:10112000C40AF801618372838383948329813A819D
:101130004B815C81C501B4010E94520A0E94C40A1D
:10114000F8016583768387839087C082F701EE5527
:10115000FF4F61E080810E9481038130C9F58EE0FC
:101160002D813E81829FF001839FF00D1124E75471
:10117000FF4F41815281638174812AE237E08D2DD6
:101180000E947605813031F58EE02D813E81829F6F
:10119000F001839FF00D1124E754FF4F8581968164
:1011A000A781B08581879287A387B48782E08587EE
:1011B00081E011C082E00FC083E00DC084E00BC06D
:1011C00085E009C081E007C081E005C080E003C080
:1011D00080E001C080E026960FB6F894DEBF0FBE17
:1011E000CDBFDF91CF911F910F91FF90EF90DF90D6
:1011F000CF90BF90AF909F908F907F906F905F90B7
:101200004F900895CF93DF939091B7009130B1F54F
:10121000811136C0C82FD0E0CE01880F991FFC0184
:10122000EE0FFF1FEE0FFF1FEE0FFF1FE81BF90B66
:10123000E754FF4F8585823029F5FE01EE0FFF1F31
:10124000EE55FF4F60E080810E9481038130E1F420
:101250008EE08C9FF0018D9FF00D1124E754FF4F1D
:1012600083E08587FE01EE0FFF1FEE55FF4F818162
:101270000E94D505813051F080E009C082E007C0AE
:1012800083E005C085E003C080E001C081E0DF911C
:10129000CF91089580919000843081F00E940501E3
:1012A000813049F40E949D01813039F484E08093BB
:1012B000900081E0089580E0089580E00895AF9265
:1012C000BF92CF92DF92EF92FF921F93CF93DF9363
:1012D0001F92CDB7DEB75C01198210E01AC0C12E93
:1012E000D12CC6018F569F4F7C01FC0180810E944A
:1012F0002A01BE016F5F7F4FF70180810E941801B4
:101300008981813029F4F7018081F501808306C04D
:101310001F5F143020F38FEFF501808381E00F9081
:10132000DF91CF911F91FF90EF90DF90CF90BF9012
:10133000AF900895CF93DF93C82F811108C081E04B
:101340000E941A0280E00E941A0281E03BC06230D3
:1013500059F018F46130A9F004C0633041F06430F2
:1013600069F040E0D0E00FC040E0DCE30CC060E09A
:1013700080E00E94810340E0DAE505C041E0DEE163
:1013800002C040E0DEE1C23021F0C33031F0C42FB2
:1013900007C0C1E040E0DEE103C0C0E041E0DEE1C3
:1013A0006D2F81E00E94AE01813049F44C2F6D2FEA
:1013B00080E00E94AE01813021F080E003C080E037
:1013C00001C081E0DF91CF9108955058BB27AA2733
:1013D0000E94FD090C94470B0E94390B38F00E94C3
:1013E000400B20F039F49F3F19F426F40C94360B8F
:1013F0000EF4E095E7FB0C94300BE92F0E94580B9C
:1014000058F3BA17620773078407950720F079F439
:10141000A6F50C947A0B0EF4E0950B2EBA2FA02DA6
:101420000B01B90190010C01CA01A0011124FF2791
:10143000591B99F0593F50F4503E68F11A16F0408C
:10144000A22F232F342F4427585FF3CF469537958B
:101450002795A795F0405395C9F77EF41F16BA0B50
:10146000620B730B840BBAF09150A1F0FF0FBB1FFE
:10147000661F771F881FC2F70EC0BA0F621F731F47
:10148000841F48F4879577956795B795F7959E3FA4
:1014900008F0B0CF9395880F08F09927EE0F979535
:1014A000879508950E94660A0C94470B0E94400B92
:1014B00058F00E94390B40F029F45F3F29F00C945A
:1014C000300B51110C947B0B0C94360B0E94580B73
:1014D00068F39923B1F3552391F3951B550BBB2763
:1014E000AA2762177307840738F09F5F5F4F220FA8
:1014F000331F441FAA1FA9F335D00E2E3AF0E0E89F
:1015000032D091505040E695001CCAF72BD0FE2FE8
:1015100029D0660F771F881FBB1F2617370748077C
:10152000AB07B0E809F0BB0B802DBF01FF27935834
:101530005F4F3AF09E3F510578F00C94300B0C94BD
:101540007B0B5F3FE4F3983ED4F3869577956795E0
:10155000B795F7959F5FC9F7880F911D9695879569
:1015600097F90895E1E0660F771F881FBB1F621788
:1015700073078407BA0720F0621B730B840BBA0B46
:10158000EE1F88F7E09508950E94600B88F09F5742
:1015900098F0B92F9927B751B0F0E1F0660F771F97
:1015A000881F991F1AF0BA95C9F714C0B13091F08D
:1015B0000E947A0BB1E008950C947A0B672F782F74
:1015C0008827B85F39F0B93FCCF386957795679552
:1015D000B395D9F73EF490958095709561957F4FBE
:1015E0008F4F9F4F0895E89409C097FB3EF4909564
:1015F0008095709561957F4F8F4F9F4F9923A9F0EC
:10160000F92F96E9BB279395F6958795779567957A
:10161000B795F111F8CFFAF4BB0F11F460FF1BC0BE
:101620006F5F7F4F8F4F9F4F16C0882311F096E951
:1016300011C0772321F09EE8872F762F05C06623FF
:1016400071F096E8862F70E060E02AF09A95660FB8
:10165000771F881FDAF7880F9695879597F9089571
:1016600097F99F6780E870E060E008959FEF80EC55
:10167000089500240A9416161706180609060895F8
:1016800000240A9412161306140605060895092E5E
:101690000394000C11F4882352F0BB0F40F4BF2BCD
:1016A00011F460FF04C06F5F7F4F8F4F9F4F08950D
:1016B00057FD9058440F551F59F05F3F71F0479503
:1016C000880F97FB991F61F09F3F79F087950895E8
:1016D000121613061406551FF2CF4695F1DF08C007
:1016E000161617061806991FF1CF86957105610524
:1016F00008940895E894BB2766277727CB0197F9CC
:1017000008950E94940B0C94470B0E94390B38F0FB
:101710000E94400B20F0952311F00C94300B0C9498
:10172000360B11240C947B0B0E94580B70F3959F81
:10173000C1F3950F50E0551F629FF001729FBB27C8
:10174000F00DB11D639FAA27F00DB11DAA1F649F64
:101750006627B00DA11D661F829F2227B00DA11D17
:10176000621F739FB00DA11D621F839FA00D611D9D
:10177000221F749F3327A00D611D231F849F600DBE
:10178000211D822F762F6A2F11249F5750409AF0E7
:10179000F1F088234AF0EE0FFF1FBB1F661F771F73
:1017A000881F91505040A9F79E3F510580F00C943E
:1017B000300B0C947B0B5F3FE4F3983ED4F386959B
:1017C00077956795B795F795E7959F5FC1F7FE2BDE
:1017D000880F911D9695879597F90895A1E21A2E85
:1017E000AA1BBB1BFD010DC0AA1FBB1FEE1FFF1FC5
:1017F000A217B307E407F50720F0A21BB30BE40B15
:10180000F50B661F771F881F991F1A9469F760955B
:101810007095809590959B01AC01BD01CF01089515
:10182000EE0FFF1F0590F491E02D0994F894FFCF7F
:10183000040504010203040703050100030000007E
:101840000301000003020000030300000104010083
:101850000105010001060100010701000306010066
:10186000050001020300050664000007086400008B
:041870000200090069
:00000001FF
