:100000000C9431000C944E000C944E000C944E0055
:100010000C9482060C94A7060C9413060C943806D4
:100020000C945D060C94EE050C94C9050C94A40583
:100030000C944E000C944E000C944E000C944E0008
:100040000C944E000C944E000C944E000C944E00F8
:100050000C944E00DD07E907E007E307E607DD073C
:10006000DD0711241FBECFE5D8E0DEBFCDBF10E015
:10007000A0E6B0E0E4EEF6E102C005900D92A43AED
:10008000B107D9F720E0A4EAB0E001C01D92A53C79
:10009000B207E1F70E9433020C94700B0C9400003D
:1000A00080916100843051F00E94A408813029F4CD
:1000B00084E08093610081E0089580E0089584EAFF
:1000C00090E00E94B9088091A4008F3F19F484E069
:1000D0008093A4008091A400823031F128F4882319
:1000E00041F08130A9F04EC0833051F18430F1F1FC
:1000F00049C080916000882309F444C010926000D8
:100100006091A5006623F1F181E00E94F4083AC0F5
:10011000809160008130B1F181E08093600061E006
:1001200082E00E94F4082EC080916000823051F17C
:1001300082E08093600061E083E00E94F40822C0C6
:10014000809160008330F1F083E08093600080E074
:100150000E94C4038091A500843021F08F5F8093BA
:10016000A50010C081E08093A5000CC080916000C4
:10017000843041F084E0809360006091A50080E0CD
:100180000E94F40881E008950E9450008FB78068B3
:100190008FBF0E945F00FDCF80916200853061F0CB
:1001A00087E690E00E943602813029F485E0809352
:1001B000620081E0089580E00895853060F4611563
:1001C000710559F0E82FF0E0EA55FF4F8081FB01FF
:1001D000808381E0089582E0089583E008950F937D
:1001E0001F93CF93DF931F92CDB7DEB7853008F012
:1001F00051C01982082F10E0F801ED59FF4FBE01E0
:100200006F5F7F4F80810E941C0489818130F9F4E7
:1002100004C00196A11DB11D03C080E090E0DC0187
:10022000883B2BE09207A105B10598F3BE016F5FF3
:100230007F4FF801ED59FF4F80810E941C04898196
:10024000813051F5F801EA55FF4F808328C088239B
:1002500031F081E024C00196A11DB11D03C080E0F2
:1002600090E0DC01883B2BE09207A105B10598F3F3
:10027000BE016F5F7F4FF801ED59FF4F80810E94F3
:100280001C04898181110AC0F801EA55FF4F1082D0
:1002900081E005C082E003C081E001C081E00F90F1
:1002A000DF91CF911F910F9108950E944E0781E039
:1002B0000895EF92FF921F93CF93DF93823008F05F
:1002C00056C0653608F055C0423008F054C0C82FFB
:1002D000D0E0FE01E655FF4F8081813009F44DC02A
:1002E000162F411116C0CE01880F991F880F991F34
:1002F0008C0F9D1F9C012C563F4F790161E0F90145
:1003000081810E942B0360E0F70182810E942B0310
:1003100016C04130A1F425E02C9FC0012D9F900D07
:1003200011249C012C563F4F790160E0F901818135
:100330000E942B0361E0F70182810E942B03FE01E2
:10034000E655FF4F81E08083CE01880F991F880F0B
:10035000991FC80FD91FCC56DF4F4B815C8160E0DD
:1003600070E0212F88810E94560781E007C082E05B
:1003700005C083E003C084E001C085E0DF91CF9138
:100380001F91FF90EF900895EF92FF920F931F93AC
:10039000CF93823008F060C0C82F082F10E078019A
:1003A000EE0CFF1CEE0CFF1CC701800F911F9C017F
:1003B0002C563F4F790160E0F90181810E942B03A7
:1003C00060E0F70182810E942B03E0E01CC0EC1783
:1003D000C9F0D801AA0FBB1FAA0FBB1FA00FB11FE6
:1003E000AC56BF4F2C918E2F90E0DC01AA0FBB1FA3
:1003F000AA0FBB1F8A0F9B1FDC01AC56BF4F8C910D
:10040000281719F0EF5FE23010F3E23069F4F801D9
:10041000EE0FFF1FEE0FFF1FE00FF11FEC56FF4F17
:1004200080810E94660812C0F0E0E655FF4F80818F
:1004300081110CC0F801EE0FFF1FEE0FFF1FE00F40
:10044000F11FEC56FF4F80810E946608F801E655C7
:10045000FF4F108281E001C082E0CF911F910F9188
:10046000FF90EF9008950E94C400FFCFAC01892B4C
:1004700009F4E9C08091AC00813009F4E6C090E055
:10048000D7C0E92FF0E0EE0FFF1FEE0FFF1FE40FC4
:10049000F51F3181383008F0DAC020812130C1F1F8
:1004A00038F0223009F464C0233009F491C0D1C07F
:1004B0002AB361E070E0DB0102C0AA0FBB1F3A95CE
:1004C000E2F78A2F809582238ABBAAB38281282FE4
:1004D00030E0018002C0220F331F0A94E2F72A2B7A
:1004E0002ABB8BB3018002C0660F771F0A94E2F724
:1004F000609568236BBB6BB38381282F30E001804C
:1005000002C0220F331F0A94E2F7262B2BBB8FC0A9
:1005100027B361E070E0DB0102C0AA0FBB1F3A9570
:10052000E2F78A2F8095822387BBA7B38281282F89
:1005300030E0018002C0220F331F0A94E2F72A2B19
:1005400027BB88B3018002C0660F771F0A94E2F7C9
:100550006095682368BB68B38381282F30E00180F1
:1005600002C0220F331F0A94E2F7262B28BB5FC07C
:1005700024B361E070E0DB0102C0AA0FBB1F3A9513
:10058000E2F78A2F8095822384BBA4B38281282F2F
:1005900030E0018002C0220F331F0A94E2F72A2BB9
:1005A00024BB85B3018002C0660F771F0A94E2F76F
:1005B0006095682365BB65B38381282F30E0018097
:1005C00002C0220F331F0A94E2F7262B25BB2FC04F
:1005D00021B361E070E0DB0102C0AA0FBB1F3A95B6
:1005E000E2F78A2F8095822381BBA1B38281282FD5
:1005F00030E0018002C0220F331F0A94E2F72A2B59
:1006000021BB82B3018002C0660F771F0A94E2F714
:100610006095682362BB62B38381282F30E001803C
:1006200002C0220F331F0A94E2F7262B22BB9F5FE2
:100630009A3008F426CF5093AE004093AD0081E08D
:100640008093AC00089585E0089587E0089583E0E5
:10065000089584E008958B3008F090C09091AC002C
:10066000992309F48DC0E82FF0E0CF01880F991F7E
:10067000880F991FE091AD00F091AE00E80FF91FCF
:100680008081813021F130F08230F1F1833009F442
:1006900058C078C0613069F42BB381E090E00180EC
:1006A00002C0880F991F0A94E2F7822B8BBB81E06E
:1006B00008952BB381E090E0018002C0880F991F5C
:1006C0000A94E2F7809582238BBB81E00895613024
:1006D00069F428B381E090E0018002C0880F991F7F
:1006E0000A94E2F7822B88BB81E0089528B381E069
:1006F00090E0018002C0880F991F0A94E2F780956C
:10070000822388BB81E00895613069F425B381E0DC
:1007100090E0018002C0880F991F0A94E2F7822BB3
:1007200085BB81E0089525B381E090E0018002C09F
:10073000880F991F0A94E2F78095822385BB81E098
:100740000895613069F422B381E090E0018002C035
:10075000880F991F0A94E2F7822B82BB81E00895EB
:1007600022B381E090E0018002C0880F991F0A94B3
:10077000E2F78095822382BB81E0089582E00895AC
:1007800086E0089584E008958B3008F04FC0909182
:10079000AC00992309F44CC0E82FF0E0CF01880F9A
:1007A000991F880F991FE091AD00F091AE00E80FFE
:1007B000F91F8081813099F028F08230E9F0833090
:1007C00041F138C02BB381E090E0018002C0880F76
:1007D000991F0A94E2F782278BBB81E0089528B322
:1007E00081E090E0018002C0880F991F0A94E2F72F
:1007F000822788BB81E0089525B381E090E00180E5
:1008000002C0880F991F0A94E2F7822785BB81E016
:10081000089522B381E090E0018002C0880F991F03
:100820000A94E2F7822782BB81E0089582E008956E
:1008300086E0089584E008958B3008F07CC09091A4
:10084000AC00992309F479C0E82FF0E0CF01880FBC
:10085000991F880F991FE091AD00F091AE00E80F4D
:10086000F91F80818130F9F030F08230A1F18330BE
:1008700009F449C064C049B3518181E090E09C0112
:10088000052E02C0220F331F0A94E2F7842F90E056
:100890008223932302C0959587955A95E2F7FB0131
:1008A000808381E0089546B3518181E090E09C010E
:1008B000052E02C0220F331F0A94E2F7842F90E026
:1008C0008223932302C0959587955A95E2F7FB0101
:1008D000808381E0089543B3518181E090E09C01E1
:1008E000052E02C0220F331F0A94E2F7842F90E0F6
:1008F0008223932302C0959587955A95E2F7FB01D1
:10090000808381E0089540B3518181E090E09C01B3
:10091000052E02C0220F331F0A94E2F7842F90E0C5
:100920008223932302C0959587955A95E2F7FB01A0
:10093000808381E0089582E0089586E0089584E050
:10094000089590E00EC0292F30E0F901EE0FFF1F4F
:100950002E0F3F1FF901E256FF4F2081281719F093
:100960009F5F992381F3892F90E0FC01EE0FFF1F19
:10097000EE0FFF1FE155FF4F40815181628173816E
:10098000411551056105710581F0880F991F880F88
:10099000991FFC01E155FF4F41505109610971094F
:1009A0004083518362837383089523B72E7F23BFCF
:1009B00023B72D7F23BF23B72B7F23BF29B72E7FDC
:1009C00029BFFC01ED54FF4F24E02083E091B400E7
:1009D000F091B5000995089520E024C0822F90E0A1
:1009E000FC01EE0FFF1FE80FF91FE256FF4F3081A9
:1009F000332319F03330D0F40FC0FC01EE0FFF1F8A
:100A0000E80FF91FE256FF4F3281311105C013BEC6
:100A100039B73C7F39BF12BEFC01ED54FF4F31E0C6
:100A200030832F5F2223D1F281E0089584E008957E
:100A30000F931F93CF93DF93890181114AC0C82F71
:100A4000D0E0FE01ED54FF4F8081882309F443C0BC
:100A5000823009F442C082E0FE01ED54FF4F8083F2
:100A6000FE01EE0FFF1FEC0FFD1FE256FF4F8081CE
:100A7000882321F0833098F184E034C0CB01BA019F
:100A80002FEF30E040E050E00E94480BFE01EE0FF7
:100A9000FF1FEE0FFF1FE155FF4F2083318342837D
:100AA0005383262F372F89B7816089BF1093B500F4
:100AB0000093B400CE01880F991FC80FD91FC256EA
:100AC000DF4F898183BF232B61F0619562BF81E095
:100AD00009C085E007C082E005C086E003C081E070
:100AE00001C081E0DF91CF911F910F910895811195
:100AF00023C090E0FC01ED54FF4F20812223F1F050
:100B00002230F1F4FC01EE0FFF1FE80FF91FE2564F
:100B1000FF4F2081222319F02330A0F406C023B711
:100B2000287F23BF29B72C7F29BFFC01ED54FF4F3D
:100B300023E0208381E0089585E0089582E0089510
:100B400087E0089584E008951F920F920FB60F92E8
:100B500011242F933F934F935F936F937F938F93C2
:100B60009F93AF93BF93EF93FF9380E00E94A10404
:100B7000FF91EF91BF91AF919F918F917F916F9175
:100B80005F914F913F912F910F900FBE0F901F904B
:100B900018951F920F920FB60F9211242F933F9327
:100BA0004F935F936F937F938F939F93AF93BF9375
:100BB000EF93FF9380E00E94A104FF91EF91BF911A
:100BC000AF919F918F917F916F915F914F913F91E5
:100BD0002F910F900FBE0F901F9018951F920F929C
:100BE0000FB60F9211242F933F934F935F936F9300
:100BF0007F938F939F93AF93BF93EF93FF9381E086
:100C00000E94A104FF91EF91BF91AF919F918F91AD
:100C10007F916F915F914F913F912F910F900FBEF8
:100C20000F901F9018951F920F920FB60F921124DC
:100C30002F933F934F935F936F937F938F939F93E4
:100C4000AF93BF93EF93FF9381E00E94A104FF91C4
:100C5000EF91BF91AF919F918F917F916F915F9134
:100C60004F913F912F910F900FBE0F901F901895AD
:100C70001F920F920FB60F9211242F933F934F9311
:100C80005F936F937F938F939F93AF93BF93EF93F4
:100C9000FF9381E00E94A104FF91EF91BF91AF917A
:100CA0009F918F917F916F915F914F913F912F9184
:100CB0000F900FBE0F901F9018951F920F920FB6B6
:100CC0000F9211242F933F934F935F936F937F93D2
:100CD0008F939F93AF93BF93EF93FF9381E00E9415
:100CE000A104FF91EF91BF91AF919F918F917F915F
:100CF0006F915F914F913F912F910F900FBE0F9089
:100D00001F9018951F920F920FB60F9211242F93D8
:100D10003F934F935F936F937F938F939F93AF9383
:100D2000BF93EF93FF9382E00E94A104FF91EF91A4
:100D3000BF91AF919F918F917F916F915F914F91F3
:100D40003F912F910F900FBE0F901F9018951F92FB
:100D50000F920FB60F9211242F933F934F935F93EF
:100D60006F937F938F939F93AF93BF93EF93FF9373
:100D700082E00E94A104FF91EF91BF91AF919F91FA
:100D80008F917F916F915F914F913F912F910F9034
:100D90000FBE0F901F9018950F931F93E091B60010
:100DA000F0E0EE0FFF1FEF55FF4F80810E94C4035C
:100DB0008091B60090E09C01220F331FF901EE0FE5
:100DC000FF1FEE0FFF1FEE0FFF1FE21BF30BE95497
:100DD000FF4F2585223009F05EC0880F991FFC0166
:100DE000EE0FFF1FEE0FFF1FEE0FFF1FE81BF90BAB
:100DF000E954FF4F4185528563857485FC01EF55A9
:100E0000FF4F2CEC36E081810E9418058091B600DE
:100E100090E09C01220F331FF901EE0FFF1FEE0F30
:100E2000FF1FEE0FFF1FE21BF30BE954FF4F01857D
:100E30001285238534854581568167817085041725
:100E4000150726073707B1F4880F991FFC01EE0F2D
:100E5000FF1FEE0FFF1FEE0FFF1FE81BF90BE954FA
:100E6000FF4F81819281A381B48181879287A3877B
:100E7000B48711C0880F991FFC01EE0FFF1FEE0F02
:100E8000FF1FEE0FFF1FE81BF90BE954FF4F4187CF
:100E90005287638774871F910F9108950E94EC0415
:100EA00087E690E00E94360281E008954F925F92BB
:100EB0006F927F928F929F92AF92BF92EF92FF922A
:100EC0000F931F93CF93DF9300D000D000D0CDB706
:100ED000DEB78111DDC0253608F0DCC0E82FF0E078
:100EE000FE83ED83DF01AA0FBB1FFD01EE0FFF1F85
:100EF000EE0FFF1FEE0FFF1FEA1BFB0BE954FF4F26
:100F00009585923009F4C8C0222309F4C7C0122F76
:100F1000E82E243651F49D012F553F4F61E0F90131
:100F200080810E942B0381E0BCC0CB01BA010E94EA
:100F30004D0A9B01AC0160E070E080E89FE30E94F5
:100F4000AC094B015C01612F70E080E090E00E94F1
:100F50004F0AA50194010E94DB0A20E030E048EC32
:100F600052E40E94AC092B013C019B01AC01C5017C
:100F7000B4010E943F0969837A838B839C83ED814E
:100F8000FE81EE0FFF1FEF55FF4FF1808F2D90E098
:100F9000FC01EE0FFF1F8E0F9F1FFC01E256FF4F5B
:100FA000E1818E2F90E0FC013197E730F10508F0E8
:100FB00077C0E65DFF4F0C946A0B61E070E00BC0F8
:100FC00060E470E008C060E071E005C060E074E0DB
:100FD00002C068E070E080E090E00E944D0A20E0EE
:100FE00034E244E759E40E94AC094B015C01E09211
:100FF000B6009B01AC01C301B2010E94AC090D8196
:101000001E81000F111F9801220F331F220F331F63
:10101000220F331F201B310B29543F4F3E832D835A
:101020000E941E0AED81FE81618372838383948313
:10103000A501940169817A818B819C810E94AC0910
:101040000E941E0AED81FE816583768387839087E7
:10105000E082F801EF55FF4F80810E94C403ED81CB
:10106000FE8141815281638174812CEC36E08F2DA9
:101070000E941805ED81FE8185819681A781B0854A
:1010800081879287A387B48782E0858781E009C042
:1010900083E007C084E005C085E003C081E001C0B3
:1010A00080E026960FB6F894DEBF0FBECDBFDF916D
:1010B000CF911F910F91FF90EF90BF90AF909F90B5
:1010C0008F907F906F905F904F9008950F931F9334
:1010D000CF93DF93811130C090E09C01220F331F2A
:1010E000F901EE0FFF1FEE0FFF1FEE0FFF1FE21BB8
:1010F000F30BE954FF4F2585223001F5EC01CC0FAD
:10110000DD1F8E010F551F4F60E0F80180810E94A6
:101110002B03FE01EE0FFF1FEE0FFF1FEE0FFF1F51
:10112000EC1BFD0BE954FF4F83E08587F8018181BB
:101130000E94770581E003C083E001C085E0DF9174
:10114000CF911F910F91089580918F00843081F08D
:101150000E94CC00813049F40E945501813039F45D
:1011600084E080938F0081E0089580E0089580E01E
:101170000895AF92BF92CF92DF92EF92FF921F93AA
:10118000CF93DF931F92CDB7DEB75C01198210E0D9
:101190001AC0C12ED12CC60180579F4F7C01FC0183
:1011A00080810E94EF00BE016F5F7F4FF701808159
:1011B0000E94DD008981813029F4F7018081F501E9
:1011C000808306C01F5F143020F38FEFF50180830A
:1011D00081E00F90DF91CF911F91FF90EF90DF9012
:1011E000CF90BF90AF900895CF93DF93C82F811118
:1011F00008C081E00E94C40180E00E94C40181E037
:101200003BC0623059F018F46130A9F004C063307B
:1012100041F0643069F040E0D0E00FC040E0DCE332
:101220000CC060E080E00E942B0340E0DAE505C0DE
:1012300041E0DEE102C040E0DEE1C23021F0C33037
:1012400031F0C42F07C0C1E040E0DEE103C0C0E0E0
:1012500041E0DEE16D2F81E00E945901813049F4C7
:101260004C2F6D2F80E00E945901813021F080E0E9
:1012700003C080E001C081E0DF91CF910895505814
:10128000BB27AA270E9457090C94A10A0E94930A1F
:1012900038F00E949A0A20F039F49F3F19F426F49E
:1012A0000C94900A0EF4E095E7FB0C948A0AE92F5F
:1012B0000E94B20A58F3BA176207730784079507AA
:1012C00020F079F4A6F50C94D40A0EF4E0950B2ED8
:1012D000BA2FA02D0B01B90190010C01CA01A00188
:1012E0001124FF27591B99F0593F50F4503E68F1E3
:1012F0001A16F040A22F232F342F4427585FF3CF24
:10130000469537952795A795F0405395C9F77EF4F4
:101310001F16BA0B620B730B840BBAF09150A1F03D
:10132000FF0FBB1F661F771F881FC2F70EC0BA0FC3
:10133000621F731F841F48F4879577956795B7954B
:10134000F7959E3F08F0B0CF9395880F08F0992746
:10135000EE0F9795879508950E94C0090C94A10AF5
:101360000E949A0A58F00E94930A40F029F45F3FC5
:1013700029F00C948A0A51110C94D50A0C94900A05
:101380000E94B20A68F39923B1F3552391F3951B98
:10139000550BBB27AA2762177307840738F09F5F96
:1013A0005F4F220F331F441FAA1FA9F335D00E2E03
:1013B0003AF0E0E832D091505040E695001CCAF770
:1013C0002BD0FE2F29D0660F771F881FBB1F261733
:1013D00037074807AB07B0E809F0BB0B802DBF010A
:1013E000FF2793585F4F3AF09E3F510578F00C94D9
:1013F0008A0A0C94D50A5F3FE4F3983ED4F38695AD
:1014000077956795B795F7959F5FC9F7880F911DF9
:101410009695879597F90895E1E0660F771F881FE5
:10142000BB1F621773078407BA0720F0621B730B98
:10143000840BBA0BEE1F88F7E09508950E94BA0A54
:1014400088F09F5798F0B92F9927B751B0F0E1F085
:10145000660F771F881F991F1AF0BA95C9F714C035
:10146000B13091F00E94D40AB1E008950C94D40AEE
:10147000672F782F8827B85F39F0B93FCCF386956E
:1014800077956795B395D9F73EF4909580957095CB
:1014900061957F4F8F4F9F4F0895E89409C097FB48
:1014A0003EF490958095709561957F4F8F4F9F4F3B
:1014B0009923A9F0F92F96E9BB279395F69587957F
:1014C00077956795B795F111F8CFFAF4BB0F11F442
:1014D00060FF1BC06F5F7F4F8F4F9F4F16C08823E9
:1014E00011F096E911C0772321F09EE8872F762F1F
:1014F00005C0662371F096E8862F70E060E02AF060
:101500009A95660F771F881FDAF7880F969587954B
:1015100097F9089597F99F6780E870E060E0089573
:101520009FEF80EC089500240A94161617061806FB
:101530000906089500240A941216130614060506D7
:101540000895092E0394000C11F4882352F0BB0F68
:1015500040F4BF2B11F460FF04C06F5F7F4F8F4FCB
:101560009F4F089557FD9058440F551F59F05F3F06
:1015700071F04795880F97FB991F61F09F3F79F0B5
:1015800087950895121613061406551FF2CF469537
:10159000F1DF08C0161617061806991FF1CF8695B9
:1015A0007105610508940895E894BB27662777279D
:1015B000CB0197F908950E94EE0A0C94A10A0E94AB
:1015C000930A38F00E949A0A20F0952311F00C94A7
:1015D0008A0A0C94900A11240C94D50A0E94B20A2B
:1015E00070F3959FC1F3950F50E0551F629FF00176
:1015F000729FBB27F00DB11D639FAA27F00DB11D8F
:10160000AA1F649F6627B00DA11D661F829F222717
:10161000B00DA11D621F739FB00DA11D621F839F9E
:10162000A00D611D221F749F3327A00D611D231F74
:10163000849F600D211D822F762F6A2F11249F57C2
:1016400050409AF0F1F088234AF0EE0FFF1FBB1FC5
:10165000661F771F881F91505040A9F79E3F510584
:1016600080F00C948A0A0C94D50A5F3FE4F3983E0C
:10167000D4F3869577956795B795F795E7959F5F2E
:10168000C1F7FE2B880F911D9695879597F90895C0
:10169000A1E21A2EAA1BBB1BFD010DC0AA1FBB1F76
:1016A000EE1FFF1FA217B307E407F50720F0A21BE8
:1016B000B30BE40BF50B661F771F881F991F1A9455
:1016C00069F760957095809590959B01AC01BD017F
:1016D000CF010895EE0FFF1F0590F491E02D0994BE
:0416E000F894FFCFAC
:1016E40004050401020304030501000300000003D0
:1016F40001000003020000030300000107010001D0
:1017040006010001050100010401000306010005B2
:1017140000010203000506640000070864000002DB
:0417240000090000B8
:00000001FF
